:100000000C9438010C9469010C9469010C946901F9
:100010000C9469010C9469010C9469010C946901B8
:100020000C9469010C9469010C9469010C946901A8
:100030000C9469010C9469010C9469010C94690198
:100040000C9469010C9469010C9469010C94690188
:100050000C9469010C9469010C9469010C94DE05FF
:100060000C9469010C9469010C9469010C94690168
:100070000C9469010C9469010C9469010C94690158
:100080000C9469010C9469010C9469010C94690148
:100090000C9469010C9469010C9469010C94690138
:1000A0000C9469010C9469010C9469010C94690128
:1000B0000C9469010C9469010C9469010C94690118
:1000C0000C9469010C9469010C9469010C94690108
:1000D0000C9469010C9469010C9469010C946901F8
:1000E0000C9469010C9472020C948A020C94170906
:1000F0000C945E020C945B020C9449020C948902ED
:100100000C9453020C9480020C94FE010C944F0248
:100110000C9464020C947C020C94EC020C94760215
:100120000C94BB020C9468020C94FA040C945603D1
:100130000C946E020C948E020C9484020C94570260
:100140000C942C030C9455030C94D9090000210045
:10015000240027002A002D00300033000101000098
:10016000040107010A0100002200250028002B00DD
:100170002E003100340002010000050108010B01CE
:10018000000020002300260029002C002F00320050
:100190000001000003010601090105050505070529
:1001A00008080808020202020A0A080804040404F3
:1001B000010101010101010103030303030303031F
:1001C000040707070C0C0C0C0C0C0C0C02020202AE
:1001D00006060606060606060B0B0B0B0B0B0B0B97
:1001E0000102102020080810204010204080020149
:1001F000020108040201010204081020408080402E
:10020000201008040201800402018040201008042C
:1002100002010804020101020408102040800102CA
:1002200004081020408000000A0B02090C0D0E0883
:1002300007030401000000000000000000000000AF
:1002400000000000000000000000000000000000AE
:10025000000012111000000000000000000000006B
:100260000000000000000000000000001709D9098C
:1002700011241FBECFEFD1E2DEBFCDBF00E00CBF27
:1002800023E0A4E7B2E001C01D92A331B207E1F779
:1002900012E0A0E0B2E0E0EEFCE100E00BBF02C043
:1002A00007900D92A437B107D9F711E0C7E3D1E069
:1002B00000E006C021970109802FFE010E94400C3A
:1002C000C633D10780E00807A9F70E9428060C94DE
:1002D0005E0E0C94000096E0899FD0011124A8576F
:1002E000BD4F90967C936E935F9791E091969C930F
:1002F0009197E091F502F091F6029091F402992322
:1003000039F0309751F0811108C08091A4021994FE
:10031000309719F05C968C91FACF0895CF92DF92C6
:10032000EF92FF920F931F9396E0899FF0011124A3
:10033000E857FD4F11A2278D30A12130310551F131
:1003400078F02230310509F451C02330310509F429
:1003500052C01F910F91FF90EF90DF90CF900895C2
:100360006623B9F361E070E00E946B012FB7F89447
:100370008091840290918502A0918602B0918702BB
:100380002FBF8093E0029093E102A093E202B0932A
:10039000E302DFCF9FB7F894C0908402D09085022B
:1003A000E0908602F09087029FBF0091E0021091DA
:1003B000E1022091E2023091E302C01AD10AE20A7E
:1003C000F30A0091F2021091F30230E020E00C15E4
:1003D0001D052E053F0550F462E070E01F910F915E
:1003E000FF90EF90DF90CF900C946B016111B1CF33
:1003F00063E070E0F3CF70E060E0F0CFAF92BF92C7
:10040000CF92DF92EF92FF920F931F93CF93DF93E0
:100410006C017B018B01040F151FEB015E01AE180F
:10042000BF08C017D10759F06991D601ED91FC9131
:100430000190F081E02DC6011995892B79F7C5014E
:10044000DF91CF911F910F91FF90EF90DF90CF90B0
:10045000BF90AF9008958150823108F05AC0E82FC4
:10046000F0E08827E95CFD4F8F4F0C94400C570259
:100470005B0249024F02530289025E026402680273
:100480006E02720276027C028002890284028A0273
:100490008E02809180008F778093800008958091F4
:1004A00080008F7DF9CF80918000877FF5CF84B564
:1004B0008F7784BD089584B58F7DFBCF8091B00088
:1004C0008F778093B00008958091B0008F7DF9CF31
:1004D000809190008F778093900008958091900094
:1004E0008F7DF9CF80919000877FF5CF8091A0001C
:1004F0008F778093A00008958091A0008F7DF9CF21
:100500008091A000877FF5CF809120018F77809325
:1005100020010895809120018F7DF9CF80912001E5
:10052000877FF5CFCF93DF93282F30E0F901EA5D85
:10053000FD4F8491F901E052FE4FD491F901E65646
:10054000FE4FC491CC23A1F081110E942B02EC2F0D
:10055000F0E0EE0FFF1FE058FE4FA591B491EC9133
:10056000ED2381E090E009F480E0DF91CF910895E0
:1005700080E090E0FACF862F0C9492021F93CF93E5
:10058000DF93282F30E0F901EA5DFD4F8491F901F6
:10059000E052FE4FD491F901E656FE4FC491CC23B0
:1005A000A9F0162F81110E942B02EC2FF0E0EE0F24
:1005B000FF1FEA59FE4FA591B4918FB7F894EC91C3
:1005C000111108C0D095DE23DC938FBFDF91CF914E
:1005D0001F910895DE2BF8CF862F642F0C94BE0256
:1005E000CF93DF9390E0FC01E052FE4F24918656BA
:1005F0009E4FFC0184918823C9F090E0880F991FD9
:10060000FC01E45BFE4FA591B491FC01EA59FE4F59
:10061000C591D49161110DC09FB7F8948C9120952C
:1006200082238C938881282328839FBFDF91CF91D9
:100630000895623051F49FB7F8943C91822F8095D1
:1006400083238C93E8812E2BEFCF8FB7F894EC9116
:100650002E2B2C938FBFEACF862F642F0C94F002A1
:100660003FB7F8948091750290917602A09177023D
:10067000B091780226B5A89B05C02F3F19F00196CE
:10068000A11DB11D3FBFBA2FA92F982F8827BC01EC
:10069000CD01620F711D811D911D42E0660F771F14
:1006A000881F991F4A95D1F70895089590E080E03A
:1006B0000895FC0101900020E9F73197AF01481B34
:1006C000590BBC0187EF92E00C94FE018F929F9230
:1006D000AF92BF920F931F93CF93DF93CDB7DEB747
:1006E000A1970FB6F894DEBF0FBECDBF19A242305E
:1006F00008F44AE08E010F5D1F4F842E912CB12C1F
:10070000A12CA50194010E941E0CE62FB901CA017B
:10071000EA30F4F4E05DD801EE938D01232B242B15
:10072000252B79F790E080E0109719F0CD010E9419
:100730005903A1960FB6F894DEBF0FBECDBFDF916F
:10074000CF911F910F91BF90AF909F908F90089580
:10075000E95CE1CFCF93DF93EC0160E08E810E94F2
:10076000BE0261E08E810E94BE0260E08E810E9426
:10077000BE028BE891E00197F1F7DF91CF910895E8
:10078000CF92DF92EF92FF920F931F93CF93DF935D
:100790006C017C0187E0E80EF11CD0E0C0E0062F80
:1007A00010E0B8010C2E02C0759567950A94E2F727
:1007B0006170F70181917F010E94BE022196C430D1
:1007C000D10579F7C601DF91CF911F910F91FF906D
:1007D000EF90DF90CF900C94AA03CF92DF92EF922C
:1007E000FF920F931F93CF93DF93EC01F62E642FAC
:1007F0008C810E94BE028D818F3F19F060E00E94C3
:10080000BE020F2D10E08F8584FF25C06E0187E0AA
:10081000C80ED11CF12CE12CB8010E2C02C075952C
:1008200067950A94E2F76170F60181916F010E9469
:10083000BE02FFEFEF1AFF0A88E0E816F10461F745
:10084000CE01DF91CF911F910F91FF90EF90DF903C
:10085000CF900C94AA03B80184E0759567958A95AA
:10086000E1F7CE010E94C0036F2DCE01DF91CF9141
:100870001F910F91FF90EF90DF90CF900C94C003E9
:1008800040E0682F87EF92E00C94ED03CF93DF9365
:10089000823029F490910603986090930603809328
:1008A0000A0310920B0380E480930C0380E1809391
:1008B0000D0380E580930E0361E08091FB020E94AE
:1008C000F0028091FC028F3F19F061E00E94F0027B
:1008D00061E08091FD020E94F002C7EFD2E09E012C
:1008E000275F32408091060384FD0BC084E090E0D6
:1008F00021962817390744F461E08E810E94F002A6
:10090000EECF88E090E0F4CF8BE39DE00197F1F724
:1009100060E08091FB020E94BE0260E08091FD02D7
:100920000E94BE028091FC028F3F19F060E00E949D
:10093000BE028091060384FD39C063E087EF92E038
:100940000E94C003CBE4D6E4CE010197F1F763E047
:1009500087EF92E00E94C0032197F1F763E087EFF1
:1009600092E00E94C00383E592E00197F1F762E014
:1009700087EF92E00E94C0038091060380620E948C
:10098000400484E0809307038CE00E94400481E0EF
:100990000E9440048BE39FE10197F1F782E080938E
:1009A000080386E0DF91CF910C94400480620E949E
:1009B00040048BE496E40197F1F78091060380628E
:1009C0000E94400483E592E00197F1F780910603CD
:1009D00080620E944004D0CF90910A03891710F0E2
:1009E0008FEF890FE82FF0E0E950FD4F8489806890
:1009F0000C94400441E00E94ED0381E090E00895F2
:100A00004F925F926F927F928F929F92AF92BF921E
:100A1000CF92DF92EF92FF920F931F93CF936B01D0
:100A20007C01742EAC019B010E94190C882399F063
:100A300080E392E0CF911F910F91FF90EF90DF90B4
:100A4000CF90BF90AF909F908F907F906F905F906E
:100A50004F900C94590346015701E894B7F82FEFD3
:100A60003FEF4FE75FE7C501B4010E94190C811108
:100A70000DC02FEF3FEF4FE75FE7C501B4010E94C4
:100A8000E20918161CF484E392E0D4CF2FEF3FEF75
:100A90004FE75FE4C701B6010E94140C18161CF45E
:100AA00088E392E0C7CF2FEF3FEF4FE75FECC7013E
:100AB000B6010E94E20987FDF3CF20E030E0A901F2
:100AC000C701B6010E94E20910E000E087FF0CC0F8
:100AD00041E06DE287EF92E00E94ED03F7FAF094B7
:100AE000F7F8F09401E010E0C0E060E070E080E032
:100AF0009FE37C1641F020E030E040E251E40E94A8
:100B0000730BCF5FF6CFA70196010E94070B4B0135
:100B10005C010E94E50B2B013C014AE00E94660348
:100B2000080F191FCC23C9F1C301B2010E94E709C4
:100B30009B01AC01C501B4010E94060B4B015C0195
:100B400041E06EE287EF92E00E94ED030F5F1F4FDE
:100B5000C15018F120E030E040E251E4C501B40199
:100B60000E94480A2B013C010E94E50B4B01B12C6D
:100B7000A12C4AE0C501B4010E946603080F191FA9
:100B8000C501B4010E94E7099B01AC01C301B20198
:100B90000E94060B4B015C01DBCFC801CF911F9176
:100BA0000F91FF90EF90DF90CF90BF90AF909F900C
:100BB0008F907F906F905F904F9008951F920F924B
:100BC0000FB60F9211242F933F938F939F93AF9360
:100BD000BF938091840290918502A0918602B0918A
:100BE00087023091740223E0230F2D3758F50196C8
:100BF000A11DB11D209374028093840290938502FD
:100C0000A0938602B093870280917502909176023C
:100C1000A0917702B09178020196A11DB11D809339
:100C2000750290937602A0937702B0937802BF91F9
:100C3000AF919F918F913F912F910F900FBE0F9089
:100C40001F90189526E8230F0296A11DB11DD2CF43
:100C5000789484B5826084BD84B5816084BD85B597
:100C6000826085BD85B5816085BD80916E008160A3
:100C700080936E0010928100809181008260809349
:100C8000810080918100816080938100809180004B
:100C90008160809380008091B10084608093B10076
:100CA0008091B00081608093B0008091910082605B
:100CB0008093910080919100816080939100809158
:100CC00090008160809390008091A1008260809369
:100CD000A1008091A10081608093A1008091A0007B
:100CE00081608093A0008091210182608093210126
:100CF0008091210181608093210180912001816098
:100D00008093200180917A00846080937A008091A2
:100D10007A00826080937A0080917A00816080936B
:100D20007A0080917A00806880937A001092C100E6
:100D300060E086E30E94F00261E087E00E94F0023A
:100D400060E08EE30E94F00261E08EE00E94F0021B
:100D500061E084E00E94F00261E085E00E94F00220
:100D600082E0809313020E94460480E00E94EC041B
:100D7000812C912C5401839440E0642E40E0742E29
:100D800086E30E94920261E0019709F060E087E04B
:100D90000E94BE028EE30E94920261E0019709F078
:100DA00060E08EE00E94BE0280917B00877F80938E
:100DB0007B008091130220E4829FC0011124836094
:100DC00080937C0080917A00806480937A00809187
:100DD0007A0086FDFCCF8091780060917900762FB3
:100DE000682F072E000C880B990B0E94E90920E060
:100DF00030E849E854E40E94480A20E030E040E24C
:100E000056E40E94730B6B017C0120E030E040EF60
:100E100051E40E94140C18160CF046C08CE392E0CA
:100E20000E94590381E00E94EC0442E0C701B60130
:100E30000E94000580E00E94EC0481E08093F402AF
:100E40008FB7F89440918402509185026091860298
:100E5000709187028FBF8091E4029091E502A0918A
:100E6000E602B091E702481B590B6A0B7B0B80919D
:100E7000F0029091F102B0E0A0E084179507A60778
:100E8000B70708F025C1C0E08091EE02C817E0F472
:100E9000E091EA02F091EB02EC0FF11D62E080813B
:100EA0000E94F002CF5FF0CF20E030E040EA51E452
:100EB000C701B6010E94E20987FF03C08DE492E0FA
:100EC000AFCF8EE592E0ACCF512C8091EF02581657
:100ED00008F05FC0052D10E0E091EC02F091ED020A
:100EE000E00FF11F61E080810E94F002E091EC02CE
:100EF000F091ED02E00FF11F60E080810E94BE02E0
:100F0000D501C401052C04C0880F991FAA1FBB1F5F
:100F10000A94D2F76C017C01E094F094412C80910A
:100F2000EE024816F8F4C42DD0E0E091EA02F09108
:100F3000EB02EC0FFD1F80810E9492022496CC0FE1
:100F4000DD1FC857DD4F892B41F4888199818C2999
:100F50009D29998388834394E2CF888199818E214A
:100F60009F21F7CFE091EC02F091ED02E00FF11F2D
:100F700061E080810E94BE028091EC029091ED02BE
:100F8000080F191F60E0F80180810E94F00253945D
:100F90009CCF08E812E0E8018F8D98A1892B31F4ED
:100FA0001C8E8FEF9FEF9E8F8D8F19A2269692E059
:100FB000C43CD90789F7F12C8091EE02F81608F0AD
:100FC00053C0E12CCF2CD12CCC0CDD1CF601E0570A
:100FD000FD4F6F012091EF02E21608F043C0F601C9
:100FE000608171810E2C02C0769567950A94E2F7B4
:100FF000F29E900111242E0D311DE8E8F2E080E010
:10100000458D568D2417350709F40FC18F5F36962D
:101010008A30B1F760FF24C0E8E8F2E090E080E0B9
:10102000448D411118C0E091E802F091E902E20F0D
:10103000F31F408156E0589FF001599FF00D112495
:10104000E857FD4F448F368F258F10A2178E61E031
:101050000E948E0105C0019636968A30910501F7EF
:10106000E394B8CFF394A8CF80E0F80191A1911157
:10107000892F0A5F1F4FC017D107B9F79FB7F894A0
:10108000409184025091850260918602709187029E
:101090009FBF4093E4025093E5026093E602709391
:1010A000E7028823A9F08091A902882389F0809122
:1010B000A7029091A802019759F42091A40221114E
:1010C0000AC06114710409F45BCE0E94000058CE7E
:1010D0001092F402F6CF2A3219F0233209F058C0E8
:1010E000109283021092820261E085E00E94BE02AB
:1010F00061E084E00E94BE020E9430031B012C01CB
:1011000082E3C82ED12CE12CF12C0E94300362190D
:10111000730984099509683E734081059105A8F318
:10112000F1E0CF1AD108E108F10828EE220E23E001
:10113000321E411C511CC114D104E104F10429F7F1
:1011400060E085E00E94BE0260E084E00E94BE0292
:101150008091820290918302049709F0B2CF80912E
:101160007A0290917B02181619060CF051C0109269
:101170007B0210927A02109283021092820261E046
:1011800085E00E94BE0260E084E00E94BE0299CF2A
:10119000809182029091830240918002509181025D
:1011A0008417950730F4E0917C02F0917D0230972E
:1011B00069F410927902E9E7F2E03081321309C054
:1011C00001969093830280938202C2CFE80FF91FA9
:1011D000F4CF8417950730F4E0917C02F0917D0202
:1011E000309799F410927902E9E7F2E030813217F2
:1011F00009F4AECF20917A0230917B022F5F3F4FEE
:1012000030937B0220937A02DBCFE80FF91FEECFF9
:10121000892B09F056CF109283021092820260E06F
:1012200085E00E94BE0261E0AFCF617011CF1092E5
:10123000FA021092F90288E292E09093F802809309
:10124000F7028DE08093FB028FEF8093FC028CE02D
:101250008093FD028BE08093FE028AE08093FF0280
:1012600089E08093000388E08093010310920203D9
:1012700010920303109204031092050310920603C8
:1012800081E00E94460410927D0210927C0210922E
:101290007F0210927E02109281021092800265E01D
:1012A00070E090E080E00E946D0D009709F190934E
:1012B0007D0280937C0224E030E030937F02209313
:1012C0007E022091800230918102232B11F4FC01D7
:1012D000108284E090E090938102809380026FE618
:1012E00072E080917C0290917D020E94570E14C0A2
:1012F00080917C0290917D02009711F00E94E40C95
:1013000010927D0210927C02109281021092800253
:1013100010927F0210927E0210928A0210928E0228
:1013200010928D0210928F028EE192E090938902CA
:1013300080938802E4EAF2E080EE92E01082148268
:101340001382158236968E179F07C1F783E092E0CD
:101350009093EB028093EA0280E092E09093ED029A
:101360008093EC0284E08093EE0283E08093EF02AE
:1013700087E092E09093E9028093E8028AE090E0AF
:101380009093F1028093F00284EF91E09093F30246
:101390008093F2021092F6021092F5021092E4028B
:1013A0001092E5021092E6021092E7021092F40207
:1013B000089580917C0290917D02009711F00C9429
:1013C000E40C08950E94240A08F481E00895E8944A
:1013D00009C097FB3EF490958095709561957F4F7D
:1013E0008F4F9F4F9923A9F0F92F96E9BB2793952B
:1013F000F695879577956795B795F111F8CFFAF43B
:10140000BB0F11F460FF1BC06F5F7F4F8F4F9F4F6B
:1014100016C0882311F096E911C0772321F09EE8C9
:10142000872F762F05C0662371F096E8862F70E02F
:1014300060E02AF09A95660F771F881FDAF7880F09
:101440009695879597F90895990F0008550FAA0B5F
:10145000E0E8FEEF16161706E807F907C0F01216C7
:101460001306E407F50798F0621B730B840B950BCA
:1014700039F40A2661F0232B242B252B21F408951F
:101480000A2609F4A140A6958FEF811D811D0895BC
:101490000E945B0A0C94CC0A0E94BE0A38F00E949B
:1014A000C50A20F0952311F00C94B50A0C94BB0AE0
:1014B00011240C94000B0E94DD0A70F3959FC1F378
:1014C000950F50E0551F629FF001729FBB27F00DF2
:1014D000B11D639FAA27F00DB11DAA1F649F662747
:1014E000B00DA11D661F829F2227B00DA11D621F96
:1014F000739FB00DA11D621F839FA00D611D221F50
:10150000749F3327A00D611D231F849F600D211D33
:10151000822F762F6A2F11249F5750409AF0F1F0B6
:1015200088234AF0EE0FFF1FBB1F661F771F881F1F
:1015300091505040A9F79E3F510580F00C94B50A98
:101540000C94000B5F3FE4F3983ED4F386957795B7
:101550006795B795F795E7959F5FC1F7FE2B880FC5
:10156000911D9695879597F9089597F99F6780E85B
:1015700070E060E008959FEF80EC089500240A94E5
:101580001616170618060906089500240A9412165E
:101590001306140605060895092E0394000C11F491
:1015A000882352F0BB0F40F4BF2B11F460FF04C03E
:1015B0006F5F7F4F8F4F9F4F089557FD9058440F97
:1015C000551F59F05F3F71F04795880F97FB991FA2
:1015D00061F09F3F79F0879508951216130614065F
:1015E000551FF2CF4695F1DF08C0161617061806EC
:1015F000991FF1CF86957105610508940895E894C7
:10160000BB2766277727CB0197F908955058BB274A
:10161000AA270E941E0B0C94CC0A0E94BE0A38F026
:101620000E94C50A20F039F49F3F19F426F40C9467
:10163000BB0A0EF4E095E7FB0C94B50AE92F0E9473
:10164000DD0A58F3BA17620773078407950720F07D
:1016500079F4A6F50C94FF0A0EF4E0950B2EBA2F40
:10166000A02D0B01B90190010C01CA01A0011124A8
:10167000FF27591B99F0593F50F4503E68F11A1654
:10168000F040A22F232F342F4427585FF3CF4695E5
:1016900037952795A795F0405395C9F77EF41F1607
:1016A000BA0B620B730B840BBAF09150A1F0FF0FD1
:1016B000BB1F661F771F881FC2F70EC0BA0F621FBD
:1016C000731F841F48F4879577956795B795F795AD
:1016D0009E3F08F0B0CF9395880F08F09927EE0F42
:1016E0009795879508950E94870B0C94CC0A0E94C9
:1016F000C50A58F00E94BE0A40F029F45F3F29F065
:101700000C94B50A51110C94000B0C94BB0A0E9466
:10171000DD0A68F39923B1F3552391F3951B550B1B
:10172000BB27AA2762177307840738F09F5F5F4FB4
:10173000220F331F441FAA1FA9F335D00E2E3AF0F3
:10174000E0E832D091505040E695001CCAF72BD00B
:10175000FE2F29D0660F771F881FBB1F261737075C
:101760004807AB07B0E809F0BB0B802DBF01FF278E
:1017700093585F4F3AF09E3F510578F00C94B50AAC
:101780000C94000B5F3FE4F3983ED4F38695779575
:101790006795B795F7959F5FC9F7880F911D969547
:1017A000879597F90895E1E0660F771F881FBB1FA3
:1017B000621773078407BA0720F0621B730B840B50
:1017C000BA0BEE1F88F7E09508950E94E50A88F0AD
:1017D0009F5798F0B92F9927B751B0F0E1F0660FF5
:1017E000771F881F991F1AF0BA95C9F714C0B13036
:1017F00091F00E94FF0AB1E008950C94FF0A672F50
:10180000782F8827B85F39F0B93FCCF38695779564
:101810006795B395D9F73EF490958095709561954D
:101820007F4F8F4F9F4F08950E94240A08F48FEF37
:1018300008950E94240A880B990B0895A1E21A2E9C
:10184000AA1BBB1BFD010DC0AA1FBB1FEE1FFF1F64
:10185000A217B307E407F50720F0A21BB30BE40BB4
:10186000F50B661F771F881F991F1A9469F76095FB
:101870007095809590959B01AC01BD01CF010895B5
:10188000EE0FFF1F881F8BBF0790F691E02D199474
:101890000F931F93CF93DF938230910510F482E072
:1018A00090E0E0911103F091120330E020E0B0E00D
:1018B000A0E0309799F42115310509F44AC0281B9E
:1018C000390B24303105D8F58A819B81611571056A
:1018D00089F1FB0193838283FE0111C04081518114
:1018E0000281138148175907E0F04817590799F406
:1018F000109761F012960C93129713961C933296E0
:10190000CF01DF91CF911F910F91089500931103A3
:1019100010931203F4CF2115310551F042175307EC
:1019200038F0A901DB019A01BD01DF01F801C1CF47
:10193000EF01F9CF9093120380931103CDCFFE01F5
:10194000E20FF31F81939193225031093983288349
:10195000D7CF20910F0330911003232B41F4209116
:101960001602309117023093100320930F03209139
:101970001402309115022115310541F42DB73EB7FF
:101980004091180250911902241B350BE0910F036E
:10199000F0911003E217F307A0F42E1B3F0B28175A
:1019A000390778F0AC014E5F5F4F2417350748F0D8
:1019B0004E0F5F1F5093100340930F038193919339
:1019C0009FCFF0E0E0E09CCFCF93DF930097E9F06A
:1019D000FC01329713821282A0911103B09112037D
:1019E000ED0130E020E01097A1F420813181820FD9
:1019F000931F20910F03309110032817390709F026
:101A000061C0F0931003E0930F03DF91CF9108952D
:101A1000EA01CE17DF07E8F54A815B819E01411597
:101A20005105B1F7E901FB83EA8349915991C40F4C
:101A3000D51FEC17FD0761F4808191810296840F18
:101A4000951FE90199838883828193819B838A838F
:101A5000F0E0E0E012968D919C9113970097B9F514
:101A60002D913C911197CD010296820F931F2091E9
:101A70000F03309110032817390739F6309751F5C5
:101A80001092120310921103B0931003A0930F034E
:101A9000BCCFD383C28340815181840F951FC81767
:101AA000D90761F44E5F5F4F88819981480F591FB4
:101AB000518340838A819B819383828321153105E1
:101AC00009F0B0CFF0931203E09311039ECFFD0114
:101AD000DC01C0CF13821282D7CF4F925F926F92F8
:101AE0007F928F929F92AF92BF92CF92DF92EF92AE
:101AF000FF920F931F93CF93DF938C01009799F47C
:101B0000CB01DF91CF911F910F91FF90EF90DF906C
:101B1000CF90BF90AF909F908F907F906F905F908D
:101B20004F900C94480CFC01E60FF71F9C012250CB
:101B30003109E217F30708F4AEC0D901CD91DC9169
:101B40001197C617D70720F1C530D10578F0CE011F
:101B500004978617970750F0C61BD70B2297C1939F
:101B6000D1936D937C93CF010E94E40CC801DF9167
:101B7000CF911F910F91FF90EF90DF90CF90BF908A
:101B8000AF909F908F907F906F905F904F9008954F
:101B90005B01AC1ABD0A4C018C0E9D1EA091110375
:101BA000B0911203512C412CF12CE12C109731F5FE
:101BB00080910F03909110038815990509F05CC07E
:101BC0004616570608F058C08091140290911502ED
:101BD000009741F48DB79EB74091180250911902B9
:101BE000841B950BE817F90708F055C0F093100314
:101BF000E0930F03F90171836083B8CF8D919C91BD
:101C0000119712966C90129713967C901397A815C3
:101C1000B90559F56C0142E0C40ED11CCA14DB04AD
:101C200020F1AC014A195B09DA011296159780F090
:101C30006282738251834083D9016D937C93E11456
:101C4000F10471F0D7011396FC93EE9312978ECFA7
:101C500022968C0F9D1FF90191838083F301EFCFB2
:101C6000F0931203E093110381CF4816590608F44C
:101C70002C017D01D3019ACFCB010E94480C7C013D
:101C8000009749F0AE01B8010E944E0EC8010E94B3
:101C9000E40C87016BCF10E000E068CFFB01DC01B2
:101CA00002C001900D9241505040D8F70895FB01B9
:101CB000DC0101900D920020E1F7089511E0C7E3E7
:101CC000D1E000E006C0802FFE010E94400C21966A
:101CD000011DC833D10780E00807A9F7F894FFCFAA
:101CE00011100F1213141531323334353637383999
:101CF0002A302301000013038000000000002C03A1
:101D0000EC02BB0200000000FA04FE01560355037A
:101D10006E616E00696E66006F76660053494341DE
:101D20004B4C494B2059554B53454B20005349438D
:101D3000414B4C494B2044555354552020005349A6
:101D400043414B4C494B3A20202020202020003298
:041D500036343500F0
:00000001FF
